01Bilbo                       Baggins                       Brandybuck                    BagEnd, Hobbiton, Shire      
02000001000000002000USD                                                                                                
02000002000000030050PLN                                                                                                
02000003000000020000PLN                                                                                                
02000004020000000000USD                                                                                                
02000005000012312334USD                                                                                                
02000006000000002323USD                                                                                                
03000006020012386707                                                                                                    