01Bob                         Smith                         Novak                         456 Oak Avenue, Village      
02000001000000002000USD                                                                                                
02000002000000001500EUR                                                                                                
02000003000000003750GBP                                                                                                
02000004000000002250JPY                                                                                                
02000005000000004125CAD                                                                                                
02000006000000000000USD                                                                                                
02000007000000000375PLN                                                                                                
02000008000000010000PLN                                                                                                
02000009000000010010CHF                                                                                                
02000010000000123450USD                                                                                                
02000011000000020000EUR                                                                                                
02000011000000187460                                                                                                   
