01Bob                         Novak                         Smith                         Baker street 221B, London    
02000001000000002000USD                                                                                                
02000002000000012300USD                                                                                                
02000003000000012323PLN                                                                                                
02000004012312312320USD                                                                                                
02000005000000004125CAD                                                                                                
02000006000000000000USD                                                                                                
02000007000000000375PLN                                                                                                
02000008000000076800GBP                                                                                                
02000009000000010010CHF                                                                                                
02000010000000123450USD                                                                                                
02000011000000020000EUR                                                                                                
02000012000021312323JPY                                                                                                
02000013000000067500USD                                                                                                
02000014000000000130GBP                                                                                                
02000015000043534500USD                                                                                                
02000016000000034200USD                                                                                                
02000017000001231200USD                                                                                                
02000018000012312300JPY                                                                                                
02000019000003242300JPY                                                                                                
02000020000000123434JPY                                                                                                
02000021000001231234GBP                                                                                                
02000022000034123443USD                                                                                                
02000023000012312300USD                                                                                                
03000023012443592733T                                                                                                   